{
  "_format": "hh-sol-artifact-1",
  "contractName": "Forum",
  "sourceName": "contracts/Forum.sol",
  "abi": [
    {
      "inputs": [
        {
          "internalType": "string",
          "name": "_name",
          "type": "string"
        },
        {
          "internalType": "string",
          "name": "_symbol",
          "type": "string"
        }
      ],
      "stateMutability": "nonpayable",
      "type": "constructor"
    },
    {
      "anonymous": false,
      "inputs": [
        {
          "indexed": true,
          "internalType": "address",
          "name": "owner",
          "type": "address"
        },
        {
          "indexed": true,
          "internalType": "address",
          "name": "approved",
          "type": "address"
        },
        {
          "indexed": true,
          "internalType": "uint256",
          "name": "tokenId",
          "type": "uint256"
        }
      ],
      "name": "Approval",
      "type": "event"
    },
    {
      "anonymous": false,
      "inputs": [
        {
          "indexed": true,
          "internalType": "address",
          "name": "owner",
          "type": "address"
        },
        {
          "indexed": true,
          "internalType": "address",
          "name": "operator",
          "type": "address"
        },
        {
          "indexed": false,
          "internalType": "bool",
          "name": "approved",
          "type": "bool"
        }
      ],
      "name": "ApprovalForAll",
      "type": "event"
    },
    {
      "anonymous": false,
      "inputs": [
        {
          "indexed": true,
          "internalType": "address",
          "name": "from",
          "type": "address"
        },
        {
          "indexed": true,
          "internalType": "address",
          "name": "to",
          "type": "address"
        },
        {
          "indexed": true,
          "internalType": "uint256",
          "name": "tokenId",
          "type": "uint256"
        }
      ],
      "name": "Transfer",
      "type": "event"
    },
    {
      "inputs": [
        {
          "internalType": "address",
          "name": "to",
          "type": "address"
        },
        {
          "internalType": "uint256",
          "name": "tokenId",
          "type": "uint256"
        }
      ],
      "name": "approve",
      "outputs": [],
      "stateMutability": "nonpayable",
      "type": "function"
    },
    {
      "inputs": [
        {
          "internalType": "address",
          "name": "owner",
          "type": "address"
        }
      ],
      "name": "balanceOf",
      "outputs": [
        {
          "internalType": "uint256",
          "name": "",
          "type": "uint256"
        }
      ],
      "stateMutability": "view",
      "type": "function"
    },
    {
      "inputs": [
        {
          "internalType": "uint256",
          "name": "",
          "type": "uint256"
        }
      ],
      "name": "channels",
      "outputs": [
        {
          "internalType": "uint256",
          "name": "id",
          "type": "uint256"
        },
        {
          "internalType": "string",
          "name": "name",
          "type": "string"
        },
        {
          "internalType": "uint256",
          "name": "cost",
          "type": "uint256"
        }
      ],
      "stateMutability": "view",
      "type": "function"
    },
    {
      "inputs": [
        {
          "internalType": "string",
          "name": "_name",
          "type": "string"
        },
        {
          "internalType": "uint256",
          "name": "_cost",
          "type": "uint256"
        }
      ],
      "name": "createChannel",
      "outputs": [],
      "stateMutability": "nonpayable",
      "type": "function"
    },
    {
      "inputs": [
        {
          "internalType": "uint256",
          "name": "tokenId",
          "type": "uint256"
        }
      ],
      "name": "getApproved",
      "outputs": [
        {
          "internalType": "address",
          "name": "",
          "type": "address"
        }
      ],
      "stateMutability": "view",
      "type": "function"
    },
    {
      "inputs": [
        {
          "internalType": "uint256",
          "name": "_id",
          "type": "uint256"
        }
      ],
      "name": "getChannel",
      "outputs": [
        {
          "components": [
            {
              "internalType": "uint256",
              "name": "id",
              "type": "uint256"
            },
            {
              "internalType": "string",
              "name": "name",
              "type": "string"
            },
            {
              "internalType": "uint256",
              "name": "cost",
              "type": "uint256"
            }
          ],
          "internalType": "struct Forum.Channel",
          "name": "",
          "type": "tuple"
        }
      ],
      "stateMutability": "view",
      "type": "function"
    },
    {
      "inputs": [
        {
          "internalType": "uint256",
          "name": "",
          "type": "uint256"
        },
        {
          "internalType": "address",
          "name": "",
          "type": "address"
        }
      ],
      "name": "hasJoined",
      "outputs": [
        {
          "internalType": "bool",
          "name": "",
          "type": "bool"
        }
      ],
      "stateMutability": "view",
      "type": "function"
    },
    {
      "inputs": [
        {
          "internalType": "address",
          "name": "owner",
          "type": "address"
        },
        {
          "internalType": "address",
          "name": "operator",
          "type": "address"
        }
      ],
      "name": "isApprovedForAll",
      "outputs": [
        {
          "internalType": "bool",
          "name": "",
          "type": "bool"
        }
      ],
      "stateMutability": "view",
      "type": "function"
    },
    {
      "inputs": [
        {
          "internalType": "uint256",
          "name": "_id",
          "type": "uint256"
        }
      ],
      "name": "mint",
      "outputs": [],
      "stateMutability": "payable",
      "type": "function"
    },
    {
      "inputs": [],
      "name": "name",
      "outputs": [
        {
          "internalType": "string",
          "name": "",
          "type": "string"
        }
      ],
      "stateMutability": "view",
      "type": "function"
    },
    {
      "inputs": [],
      "name": "owner",
      "outputs": [
        {
          "internalType": "address",
          "name": "",
          "type": "address"
        }
      ],
      "stateMutability": "view",
      "type": "function"
    },
    {
      "inputs": [
        {
          "internalType": "uint256",
          "name": "tokenId",
          "type": "uint256"
        }
      ],
      "name": "ownerOf",
      "outputs": [
        {
          "internalType": "address",
          "name": "",
          "type": "address"
        }
      ],
      "stateMutability": "view",
      "type": "function"
    },
    {
      "inputs": [
        {
          "internalType": "address",
          "name": "from",
          "type": "address"
        },
        {
          "internalType": "address",
          "name": "to",
          "type": "address"
        },
        {
          "internalType": "uint256",
          "name": "tokenId",
          "type": "uint256"
        }
      ],
      "name": "safeTransferFrom",
      "outputs": [],
      "stateMutability": "nonpayable",
      "type": "function"
    },
    {
      "inputs": [
        {
          "internalType": "address",
          "name": "from",
          "type": "address"
        },
        {
          "internalType": "address",
          "name": "to",
          "type": "address"
        },
        {
          "internalType": "uint256",
          "name": "tokenId",
          "type": "uint256"
        },
        {
          "internalType": "bytes",
          "name": "data",
          "type": "bytes"
        }
      ],
      "name": "safeTransferFrom",
      "outputs": [],
      "stateMutability": "nonpayable",
      "type": "function"
    },
    {
      "inputs": [
        {
          "internalType": "address",
          "name": "operator",
          "type": "address"
        },
        {
          "internalType": "bool",
          "name": "approved",
          "type": "bool"
        }
      ],
      "name": "setApprovalForAll",
      "outputs": [],
      "stateMutability": "nonpayable",
      "type": "function"
    },
    {
      "inputs": [
        {
          "internalType": "bytes4",
          "name": "interfaceId",
          "type": "bytes4"
        }
      ],
      "name": "supportsInterface",
      "outputs": [
        {
          "internalType": "bool",
          "name": "",
          "type": "bool"
        }
      ],
      "stateMutability": "view",
      "type": "function"
    },
    {
      "inputs": [],
      "name": "symbol",
      "outputs": [
        {
          "internalType": "string",
          "name": "",
          "type": "string"
        }
      ],
      "stateMutability": "view",
      "type": "function"
    },
    {
      "inputs": [
        {
          "internalType": "uint256",
          "name": "tokenId",
          "type": "uint256"
        }
      ],
      "name": "tokenURI",
      "outputs": [
        {
          "internalType": "string",
          "name": "",
          "type": "string"
        }
      ],
      "stateMutability": "view",
      "type": "function"
    },
    {
      "inputs": [],
      "name": "totalChannels",
      "outputs": [
        {
          "internalType": "uint256",
          "name": "",
          "type": "uint256"
        }
      ],
      "stateMutability": "view",
      "type": "function"
    },
    {
      "inputs": [],
      "name": "totalSupply",
      "outputs": [
        {
          "internalType": "uint256",
          "name": "",
          "type": "uint256"
        }
      ],
      "stateMutability": "view",
      "type": "function"
    },
    {
      "inputs": [
        {
          "internalType": "address",
          "name": "from",
          "type": "address"
        },
        {
          "internalType": "address",
          "name": "to",
          "type": "address"
        },
        {
          "internalType": "uint256",
          "name": "tokenId",
          "type": "uint256"
        }
      ],
      "name": "transferFrom",
      "outputs": [],
      "stateMutability": "nonpayable",
      "type": "function"
    }
  ],
  "bytecode": "0x60806040523480156200001157600080fd5b5060405162003c9a38038062003c9a83398181016040528101906200003791906200023b565b818181600090816200004a91906200050b565b5080600190816200005c91906200050b565b50505033600660006101000a81548173ffffffffffffffffffffffffffffffffffffffff021916908373ffffffffffffffffffffffffffffffffffffffff1602179055505050620005f2565b6000604051905090565b600080fd5b600080fd5b600080fd5b600080fd5b6000601f19601f8301169050919050565b7f4e487b7100000000000000000000000000000000000000000000000000000000600052604160045260246000fd5b6200011182620000c6565b810181811067ffffffffffffffff82111715620001335762000132620000d7565b5b80604052505050565b600062000148620000a8565b905062000156828262000106565b919050565b600067ffffffffffffffff821115620001795762000178620000d7565b5b6200018482620000c6565b9050602081019050919050565b60005b83811015620001b157808201518184015260208101905062000194565b60008484015250505050565b6000620001d4620001ce846200015b565b6200013c565b905082815260208101848484011115620001f357620001f2620000c1565b5b6200020084828562000191565b509392505050565b600082601f83011262000220576200021f620000bc565b5b815162000232848260208601620001bd565b91505092915050565b60008060408385031215620002555762000254620000b2565b5b600083015167ffffffffffffffff811115620002765762000275620000b7565b5b620002848582860162000208565b925050602083015167ffffffffffffffff811115620002a857620002a7620000b7565b5b620002b68582860162000208565b9150509250929050565b600081519050919050565b7f4e487b7100000000000000000000000000000000000000000000000000000000600052602260045260246000fd5b600060028204905060018216806200031357607f821691505b602082108103620003295762000328620002cb565b5b50919050565b60008190508160005260206000209050919050565b60006020601f8301049050919050565b600082821b905092915050565b600060088302620003937fffffffffffffffffffffffffffffffffffffffffffffffffffffffffffffffff8262000354565b6200039f868362000354565b95508019841693508086168417925050509392505050565b6000819050919050565b6000819050919050565b6000620003ec620003e6620003e084620003b7565b620003c1565b620003b7565b9050919050565b6000819050919050565b6200040883620003cb565b620004206200041782620003f3565b84845462000361565b825550505050565b600090565b6200043762000428565b62000444818484620003fd565b505050565b5b818110156200046c57620004606000826200042d565b6001810190506200044a565b5050565b601f821115620004bb5762000485816200032f565b620004908462000344565b81016020851015620004a0578190505b620004b8620004af8562000344565b83018262000449565b50505b505050565b600082821c905092915050565b6000620004e060001984600802620004c0565b1980831691505092915050565b6000620004fb8383620004cd565b9150826002028217905092915050565b6200051682620002c0565b67ffffffffffffffff811115620005325762000531620000d7565b5b6200053e8254620002fa565b6200054b82828562000470565b600060209050601f8311600181146200058357600084156200056e578287015190505b6200057a8582620004ed565b865550620005ea565b601f19841662000593866200032f565b60005b82811015620005bd5784890151825560018201915060208501945060208101905062000596565b86831015620005dd5784890151620005d9601f891682620004cd565b8355505b6001600288020188555050505b505050505050565b61369880620006026000396000f3fe60806040526004361061012a5760003560e01c806370a08231116100ab578063a14865cd1161006f578063a14865cd1461040b578063a22cb46514610434578063b88d4fde1461045d578063c87b56dd14610486578063e5949b5d146104c3578063e985e9c5146105025761012a565b806370a08231146103315780637734a9f61461036e5780638da5cb5b1461039957806395d89b41146103c4578063a0712d68146103ef5761012a565b806318160ddd116100f257806318160ddd1461023a57806323b872dd1461026557806342842e0e1461028e5780636352211e146102b757806368194719146102f45761012a565b806301ffc9a71461012f57806306fdde031461016c578063081812fc14610197578063095ea7b3146101d457806310df54a0146101fd575b600080fd5b34801561013b57600080fd5b5061015660048036038101906101519190612123565b61053f565b604051610163919061216b565b60405180910390f35b34801561017857600080fd5b50610181610621565b60405161018e9190612216565b60405180910390f35b3480156101a357600080fd5b506101be60048036038101906101b9919061226e565b6106b3565b6040516101cb91906122dc565b60405180910390f35b3480156101e057600080fd5b506101fb60048036038101906101f69190612323565b6106f9565b005b34801561020957600080fd5b50610224600480360381019061021f919061226e565b610810565b604051610231919061240c565b60405180910390f35b34801561024657600080fd5b5061024f6108e3565b60405161025c919061243d565b60405180910390f35b34801561027157600080fd5b5061028c60048036038101906102879190612458565b6108e9565b005b34801561029a57600080fd5b506102b560048036038101906102b09190612458565b610949565b005b3480156102c357600080fd5b506102de60048036038101906102d9919061226e565b610969565b6040516102eb91906122dc565b60405180910390f35b34801561030057600080fd5b5061031b600480360381019061031691906124ab565b6109ef565b604051610328919061216b565b60405180910390f35b34801561033d57600080fd5b50610358600480360381019061035391906124eb565b610a1e565b604051610365919061243d565b60405180910390f35b34801561037a57600080fd5b50610383610ad5565b604051610390919061243d565b60405180910390f35b3480156103a557600080fd5b506103ae610adb565b6040516103bb91906122dc565b60405180910390f35b3480156103d057600080fd5b506103d9610b01565b6040516103e69190612216565b60405180910390f35b6104096004803603810190610404919061226e565b610b93565b005b34801561041757600080fd5b50610432600480360381019061042d919061264d565b610e77565b005b34801561044057600080fd5b5061045b600480360381019061045691906126d5565b610f82565b005b34801561046957600080fd5b50610484600480360381019061047f91906127b6565b610f98565b005b34801561049257600080fd5b506104ad60048036038101906104a8919061226e565b610ffa565b6040516104ba9190612216565b60405180910390f35b3480156104cf57600080fd5b506104ea60048036038101906104e5919061226e565b611062565b6040516104f993929190612839565b60405180910390f35b34801561050e57600080fd5b5061052960048036038101906105249190612877565b611114565b604051610536919061216b565b60405180910390f35b60007f80ac58cd000000000000000000000000000000000000000000000000000000007bffffffffffffffffffffffffffffffffffffffffffffffffffffffff1916827bffffffffffffffffffffffffffffffffffffffffffffffffffffffff1916148061060a57507f5b5e139f000000000000000000000000000000000000000000000000000000007bffffffffffffffffffffffffffffffffffffffffffffffffffffffff1916827bffffffffffffffffffffffffffffffffffffffffffffffffffffffff1916145b8061061a5750610619826111a8565b5b9050919050565b606060008054610630906128e6565b80601f016020809104026020016040519081016040528092919081815260200182805461065c906128e6565b80156106a95780601f1061067e576101008083540402835291602001916106a9565b820191906000526020600020905b81548152906001019060200180831161068c57829003601f168201915b5050505050905090565b60006106be82611212565b6004600083815260200190815260200160002060009054906101000a900473ffffffffffffffffffffffffffffffffffffffff169050919050565b600061070482610969565b90508073ffffffffffffffffffffffffffffffffffffffff168373ffffffffffffffffffffffffffffffffffffffff1603610774576040517f08c379a000000000000000000000000000000000000000000000000000000000815260040161076b90612989565b60405180910390fd5b8073ffffffffffffffffffffffffffffffffffffffff1661079361125d565b73ffffffffffffffffffffffffffffffffffffffff1614806107c257506107c1816107bc61125d565b611114565b5b610801576040517f08c379a00000000000000000000000000000000000000000000000000000000081526004016107f890612a1b565b60405180910390fd5b61080b8383611265565b505050565b610818612096565b6009600083815260200190815260200160002060405180606001604052908160008201548152602001600182018054610850906128e6565b80601f016020809104026020016040519081016040528092919081815260200182805461087c906128e6565b80156108c95780601f1061089e576101008083540402835291602001916108c9565b820191906000526020600020905b8154815290600101906020018083116108ac57829003601f168201915b505050505081526020016002820154815250509050919050565b60075481565b6108fa6108f461125d565b8261131e565b610939576040517f08c379a000000000000000000000000000000000000000000000000000000000815260040161093090612aad565b60405180910390fd5b6109448383836113b3565b505050565b61096483838360405180602001604052806000815250610f98565b505050565b600080610975836116ac565b9050600073ffffffffffffffffffffffffffffffffffffffff168173ffffffffffffffffffffffffffffffffffffffff16036109e6576040517f08c379a00000000000000000000000000000000000000000000000000000000081526004016109dd90612b19565b60405180910390fd5b80915050919050565b600a6020528160005260406000206020528060005260406000206000915091509054906101000a900460ff1681565b60008073ffffffffffffffffffffffffffffffffffffffff168273ffffffffffffffffffffffffffffffffffffffff1603610a8e576040517f08c379a0000000000000000000000000000000000000000000000000000000008152600401610a8590612bab565b60405180910390fd5b600360008373ffffffffffffffffffffffffffffffffffffffff1673ffffffffffffffffffffffffffffffffffffffff168152602001908152602001600020549050919050565b60085481565b600660009054906101000a900473ffffffffffffffffffffffffffffffffffffffff1681565b606060018054610b10906128e6565b80601f0160208091040260200160405190810160405280929190818152602001828054610b3c906128e6565b8015610b895780601f10610b5e57610100808354040283529160200191610b89565b820191906000526020600020905b815481529060010190602001808311610b6c57829003601f168201915b5050505050905090565b60008103610bd6576040517f08c379a0000000000000000000000000000000000000000000000000000000008152600401610bcd90612c17565b60405180910390fd5b600854811115610c1b576040517f08c379a0000000000000000000000000000000000000000000000000000000008152600401610c1290612c83565b60405180910390fd5b60001515600a600083815260200190815260200160002060003373ffffffffffffffffffffffffffffffffffffffff1673ffffffffffffffffffffffffffffffffffffffff16815260200190815260200160002060009054906101000a900460ff16151514610cbf576040517f08c379a0000000000000000000000000000000000000000000000000000000008152600401610cb690612cef565b60405180910390fd5b6009600082815260200190815260200160002060020154341015610d18576040517f08c379a0000000000000000000000000000000000000000000000000000000008152600401610d0f90612d5b565b60405180910390fd5b610d24336007546116e9565b6001600a600083815260200190815260200160002060003373ffffffffffffffffffffffffffffffffffffffff1673ffffffffffffffffffffffffffffffffffffffff16815260200190815260200160002060006101000a81548160ff02191690831515021790555060076000815480929190610da090612daa565b91905055506000600660009054906101000a900473ffffffffffffffffffffffffffffffffffffffff1673ffffffffffffffffffffffffffffffffffffffff1634604051610ded90612e23565b60006040518083038185875af1925050503d8060008114610e2a576040519150601f19603f3d011682016040523d82523d6000602084013e610e2f565b606091505b5050905080610e73576040517f08c379a0000000000000000000000000000000000000000000000000000000008152600401610e6a90612e84565b60405180910390fd5b5050565b600660009054906101000a900473ffffffffffffffffffffffffffffffffffffffff1673ffffffffffffffffffffffffffffffffffffffff163373ffffffffffffffffffffffffffffffffffffffff1614610f07576040517f08c379a0000000000000000000000000000000000000000000000000000000008152600401610efe90612ef0565b60405180910390fd5b60086000815480929190610f1a90612daa565b91905055506040518060600160405280600854815260200183815260200182815250600960006008548152602001908152602001600020600082015181600001556020820151816001019081610f7091906130bc565b50604082015181600201559050505050565b610f94610f8d61125d565b8383611707565b5050565b610fa9610fa361125d565b8361131e565b610fe8576040517f08c379a0000000000000000000000000000000000000000000000000000000008152600401610fdf90612aad565b60405180910390fd5b610ff484848484611873565b50505050565b606061100582611212565b600061100f6118cf565b9050600081511161102f576040518060200160405280600081525061105a565b80611039846118e6565b60405160200161104a9291906131ca565b6040516020818303038152906040525b915050919050565b600960205280600052604060002060009150905080600001549080600101805461108b906128e6565b80601f01602080910402602001604051908101604052809291908181526020018280546110b7906128e6565b80156111045780601f106110d957610100808354040283529160200191611104565b820191906000526020600020905b8154815290600101906020018083116110e757829003601f168201915b5050505050908060020154905083565b6000600560008473ffffffffffffffffffffffffffffffffffffffff1673ffffffffffffffffffffffffffffffffffffffff16815260200190815260200160002060008373ffffffffffffffffffffffffffffffffffffffff1673ffffffffffffffffffffffffffffffffffffffff16815260200190815260200160002060009054906101000a900460ff16905092915050565b60007f01ffc9a7000000000000000000000000000000000000000000000000000000007bffffffffffffffffffffffffffffffffffffffffffffffffffffffff1916827bffffffffffffffffffffffffffffffffffffffffffffffffffffffff1916149050919050565b61121b816119b4565b61125a576040517f08c379a000000000000000000000000000000000000000000000000000000000815260040161125190612b19565b60405180910390fd5b50565b600033905090565b816004600083815260200190815260200160002060006101000a81548173ffffffffffffffffffffffffffffffffffffffff021916908373ffffffffffffffffffffffffffffffffffffffff160217905550808273ffffffffffffffffffffffffffffffffffffffff166112d883610969565b73ffffffffffffffffffffffffffffffffffffffff167f8c5be1e5ebec7d5bd14f71427d1e84f3dd0314c0f7b2291e5b200ac8c7c3b92560405160405180910390a45050565b60008061132a83610969565b90508073ffffffffffffffffffffffffffffffffffffffff168473ffffffffffffffffffffffffffffffffffffffff16148061136c575061136b8185611114565b5b806113aa57508373ffffffffffffffffffffffffffffffffffffffff16611392846106b3565b73ffffffffffffffffffffffffffffffffffffffff16145b91505092915050565b8273ffffffffffffffffffffffffffffffffffffffff166113d382610969565b73ffffffffffffffffffffffffffffffffffffffff1614611429576040517f08c379a000000000000000000000000000000000000000000000000000000000815260040161142090613260565b60405180910390fd5b600073ffffffffffffffffffffffffffffffffffffffff168273ffffffffffffffffffffffffffffffffffffffff1603611498576040517f08c379a000000000000000000000000000000000000000000000000000000000815260040161148f906132f2565b60405180910390fd5b6114a583838360016119f5565b8273ffffffffffffffffffffffffffffffffffffffff166114c582610969565b73ffffffffffffffffffffffffffffffffffffffff161461151b576040517f08c379a000000000000000000000000000000000000000000000000000000000815260040161151290613260565b60405180910390fd5b6004600082815260200190815260200160002060006101000a81549073ffffffffffffffffffffffffffffffffffffffff02191690556001600360008573ffffffffffffffffffffffffffffffffffffffff1673ffffffffffffffffffffffffffffffffffffffff168152602001908152602001600020600082825403925050819055506001600360008473ffffffffffffffffffffffffffffffffffffffff1673ffffffffffffffffffffffffffffffffffffffff16815260200190815260200160002060008282540192505081905550816002600083815260200190815260200160002060006101000a81548173ffffffffffffffffffffffffffffffffffffffff021916908373ffffffffffffffffffffffffffffffffffffffff160217905550808273ffffffffffffffffffffffffffffffffffffffff168473ffffffffffffffffffffffffffffffffffffffff167fddf252ad1be2c89b69c2b068fc378daa952ba7f163c4a11628f55a4df523b3ef60405160405180910390a46116a78383836001611b1b565b505050565b60006002600083815260200190815260200160002060009054906101000a900473ffffffffffffffffffffffffffffffffffffffff169050919050565b611703828260405180602001604052806000815250611b21565b5050565b8173ffffffffffffffffffffffffffffffffffffffff168373ffffffffffffffffffffffffffffffffffffffff1603611775576040517f08c379a000000000000000000000000000000000000000000000000000000000815260040161176c9061335e565b60405180910390fd5b80600560008573ffffffffffffffffffffffffffffffffffffffff1673ffffffffffffffffffffffffffffffffffffffff16815260200190815260200160002060008473ffffffffffffffffffffffffffffffffffffffff1673ffffffffffffffffffffffffffffffffffffffff16815260200190815260200160002060006101000a81548160ff0219169083151502179055508173ffffffffffffffffffffffffffffffffffffffff168373ffffffffffffffffffffffffffffffffffffffff167f17307eab39ab6107e8899845ad3d59bd9653f200f220920489ca2b5937696c3183604051611866919061216b565b60405180910390a3505050565b61187e8484846113b3565b61188a84848484611b7c565b6118c9576040517f08c379a00000000000000000000000000000000000000000000000000000000081526004016118c0906133f0565b60405180910390fd5b50505050565b606060405180602001604052806000815250905090565b6060600060016118f584611d03565b01905060008167ffffffffffffffff81111561191457611913612522565b5b6040519080825280601f01601f1916602001820160405280156119465781602001600182028036833780820191505090505b509050600082602001820190505b6001156119a9578080600190039150507f3031323334353637383961626364656600000000000000000000000000000000600a86061a8153600a858161199d5761199c613410565b5b04945060008503611954575b819350505050919050565b60008073ffffffffffffffffffffffffffffffffffffffff166119d6836116ac565b73ffffffffffffffffffffffffffffffffffffffff1614159050919050565b6001811115611b1557600073ffffffffffffffffffffffffffffffffffffffff168473ffffffffffffffffffffffffffffffffffffffff1614611a895780600360008673ffffffffffffffffffffffffffffffffffffffff1673ffffffffffffffffffffffffffffffffffffffff1681526020019081526020016000206000828254611a81919061343f565b925050819055505b600073ffffffffffffffffffffffffffffffffffffffff168373ffffffffffffffffffffffffffffffffffffffff1614611b145780600360008573ffffffffffffffffffffffffffffffffffffffff1673ffffffffffffffffffffffffffffffffffffffff1681526020019081526020016000206000828254611b0c9190613473565b925050819055505b5b50505050565b50505050565b611b2b8383611e56565b611b386000848484611b7c565b611b77576040517f08c379a0000000000000000000000000000000000000000000000000000000008152600401611b6e906133f0565b60405180910390fd5b505050565b6000611b9d8473ffffffffffffffffffffffffffffffffffffffff16612073565b15611cf6578373ffffffffffffffffffffffffffffffffffffffff1663150b7a02611bc661125d565b8786866040518563ffffffff1660e01b8152600401611be894939291906134fc565b6020604051808303816000875af1925050508015611c2457506040513d601f19601f82011682018060405250810190611c21919061355d565b60015b611ca6573d8060008114611c54576040519150601f19603f3d011682016040523d82523d6000602084013e611c59565b606091505b506000815103611c9e576040517f08c379a0000000000000000000000000000000000000000000000000000000008152600401611c95906133f0565b60405180910390fd5b805181602001fd5b63150b7a0260e01b7bffffffffffffffffffffffffffffffffffffffffffffffffffffffff1916817bffffffffffffffffffffffffffffffffffffffffffffffffffffffff191614915050611cfb565b600190505b949350505050565b600080600090507a184f03e93ff9f4daa797ed6e38ed64bf6a1f0100000000000000008310611d61577a184f03e93ff9f4daa797ed6e38ed64bf6a1f0100000000000000008381611d5757611d56613410565b5b0492506040810190505b6d04ee2d6d415b85acef81000000008310611d9e576d04ee2d6d415b85acef81000000008381611d9457611d93613410565b5b0492506020810190505b662386f26fc100008310611dcd57662386f26fc100008381611dc357611dc2613410565b5b0492506010810190505b6305f5e1008310611df6576305f5e1008381611dec57611deb613410565b5b0492506008810190505b6127108310611e1b576127108381611e1157611e10613410565b5b0492506004810190505b60648310611e3e5760648381611e3457611e33613410565b5b0492506002810190505b600a8310611e4d576001810190505b80915050919050565b600073ffffffffffffffffffffffffffffffffffffffff168273ffffffffffffffffffffffffffffffffffffffff1603611ec5576040517f08c379a0000000000000000000000000000000000000000000000000000000008152600401611ebc906135d6565b60405180910390fd5b611ece816119b4565b15611f0e576040517f08c379a0000000000000000000000000000000000000000000000000000000008152600401611f0590613642565b60405180910390fd5b611f1c6000838360016119f5565b611f25816119b4565b15611f65576040517f08c379a0000000000000000000000000000000000000000000000000000000008152600401611f5c90613642565b60405180910390fd5b6001600360008473ffffffffffffffffffffffffffffffffffffffff1673ffffffffffffffffffffffffffffffffffffffff16815260200190815260200160002060008282540192505081905550816002600083815260200190815260200160002060006101000a81548173ffffffffffffffffffffffffffffffffffffffff021916908373ffffffffffffffffffffffffffffffffffffffff160217905550808273ffffffffffffffffffffffffffffffffffffffff16600073ffffffffffffffffffffffffffffffffffffffff167fddf252ad1be2c89b69c2b068fc378daa952ba7f163c4a11628f55a4df523b3ef60405160405180910390a461206f600083836001611b1b565b5050565b6000808273ffffffffffffffffffffffffffffffffffffffff163b119050919050565b60405180606001604052806000815260200160608152602001600081525090565b6000604051905090565b600080fd5b600080fd5b60007fffffffff0000000000000000000000000000000000000000000000000000000082169050919050565b612100816120cb565b811461210b57600080fd5b50565b60008135905061211d816120f7565b92915050565b600060208284031215612139576121386120c1565b5b60006121478482850161210e565b91505092915050565b60008115159050919050565b61216581612150565b82525050565b6000602082019050612180600083018461215c565b92915050565b600081519050919050565b600082825260208201905092915050565b60005b838110156121c05780820151818401526020810190506121a5565b60008484015250505050565b6000601f19601f8301169050919050565b60006121e882612186565b6121f28185612191565b93506122028185602086016121a2565b61220b816121cc565b840191505092915050565b6000602082019050818103600083015261223081846121dd565b905092915050565b6000819050919050565b61224b81612238565b811461225657600080fd5b50565b60008135905061226881612242565b92915050565b600060208284031215612284576122836120c1565b5b600061229284828501612259565b91505092915050565b600073ffffffffffffffffffffffffffffffffffffffff82169050919050565b60006122c68261229b565b9050919050565b6122d6816122bb565b82525050565b60006020820190506122f160008301846122cd565b92915050565b612300816122bb565b811461230b57600080fd5b50565b60008135905061231d816122f7565b92915050565b6000806040838503121561233a576123396120c1565b5b60006123488582860161230e565b925050602061235985828601612259565b9150509250929050565b61236c81612238565b82525050565b600082825260208201905092915050565b600061238e82612186565b6123988185612372565b93506123a88185602086016121a2565b6123b1816121cc565b840191505092915050565b60006060830160008301516123d46000860182612363565b50602083015184820360208601526123ec8282612383565b91505060408301516124016040860182612363565b508091505092915050565b6000602082019050818103600083015261242681846123bc565b905092915050565b61243781612238565b82525050565b6000602082019050612452600083018461242e565b92915050565b600080600060608486031215612471576124706120c1565b5b600061247f8682870161230e565b93505060206124908682870161230e565b92505060406124a186828701612259565b9150509250925092565b600080604083850312156124c2576124c16120c1565b5b60006124d085828601612259565b92505060206124e18582860161230e565b9150509250929050565b600060208284031215612501576125006120c1565b5b600061250f8482850161230e565b91505092915050565b600080fd5b600080fd5b7f4e487b7100000000000000000000000000000000000000000000000000000000600052604160045260246000fd5b61255a826121cc565b810181811067ffffffffffffffff8211171561257957612578612522565b5b80604052505050565b600061258c6120b7565b90506125988282612551565b919050565b600067ffffffffffffffff8211156125b8576125b7612522565b5b6125c1826121cc565b9050602081019050919050565b82818337600083830152505050565b60006125f06125eb8461259d565b612582565b90508281526020810184848401111561260c5761260b61251d565b5b6126178482856125ce565b509392505050565b600082601f83011261263457612633612518565b5b81356126448482602086016125dd565b91505092915050565b60008060408385031215612664576126636120c1565b5b600083013567ffffffffffffffff811115612682576126816120c6565b5b61268e8582860161261f565b925050602061269f85828601612259565b9150509250929050565b6126b281612150565b81146126bd57600080fd5b50565b6000813590506126cf816126a9565b92915050565b600080604083850312156126ec576126eb6120c1565b5b60006126fa8582860161230e565b925050602061270b858286016126c0565b9150509250929050565b600067ffffffffffffffff8211156127305761272f612522565b5b612739826121cc565b9050602081019050919050565b600061275961275484612715565b612582565b9050828152602081018484840111156127755761277461251d565b5b6127808482856125ce565b509392505050565b600082601f83011261279d5761279c612518565b5b81356127ad848260208601612746565b91505092915050565b600080600080608085870312156127d0576127cf6120c1565b5b60006127de8782880161230e565b94505060206127ef8782880161230e565b935050604061280087828801612259565b925050606085013567ffffffffffffffff811115612821576128206120c6565b5b61282d87828801612788565b91505092959194509250565b600060608201905061284e600083018661242e565b818103602083015261286081856121dd565b905061286f604083018461242e565b949350505050565b6000806040838503121561288e5761288d6120c1565b5b600061289c8582860161230e565b92505060206128ad8582860161230e565b9150509250929050565b7f4e487b7100000000000000000000000000000000000000000000000000000000600052602260045260246000fd5b600060028204905060018216806128fe57607f821691505b602082108103612911576129106128b7565b5b50919050565b7f4552433732313a20617070726f76616c20746f2063757272656e74206f776e6560008201527f7200000000000000000000000000000000000000000000000000000000000000602082015250565b6000612973602183612191565b915061297e82612917565b604082019050919050565b600060208201905081810360008301526129a281612966565b9050919050565b7f4552433732313a20617070726f76652063616c6c6572206973206e6f7420746f60008201527f6b656e206f776e6572206f7220617070726f76656420666f7220616c6c000000602082015250565b6000612a05603d83612191565b9150612a10826129a9565b604082019050919050565b60006020820190508181036000830152612a34816129f8565b9050919050565b7f4552433732313a2063616c6c6572206973206e6f7420746f6b656e206f776e6560008201527f72206f7220617070726f76656400000000000000000000000000000000000000602082015250565b6000612a97602d83612191565b9150612aa282612a3b565b604082019050919050565b60006020820190508181036000830152612ac681612a8a565b9050919050565b7f4552433732313a20696e76616c696420746f6b656e2049440000000000000000600082015250565b6000612b03601883612191565b9150612b0e82612acd565b602082019050919050565b60006020820190508181036000830152612b3281612af6565b9050919050565b7f4552433732313a2061646472657373207a65726f206973206e6f74206120766160008201527f6c6964206f776e65720000000000000000000000000000000000000000000000602082015250565b6000612b95602983612191565b9150612ba082612b39565b604082019050919050565b60006020820190508181036000830152612bc481612b88565b9050919050565b7f496e76616c6964206368616e6e656c2049440000000000000000000000000000600082015250565b6000612c01601283612191565b9150612c0c82612bcb565b602082019050919050565b60006020820190508181036000830152612c3081612bf4565b9050919050565b7f4368616e6e656c20646f6573206e6f7420657869737400000000000000000000600082015250565b6000612c6d601683612191565b9150612c7882612c37565b602082019050919050565b60006020820190508181036000830152612c9c81612c60565b9050919050565b7f416c7265616479206a6f696e6564000000000000000000000000000000000000600082015250565b6000612cd9600e83612191565b9150612ce482612ca3565b602082019050919050565b60006020820190508181036000830152612d0881612ccc565b9050919050565b7f496e73756666696369656e74207061796d656e74000000000000000000000000600082015250565b6000612d45601483612191565b9150612d5082612d0f565b602082019050919050565b60006020820190508181036000830152612d7481612d38565b9050919050565b7f4e487b7100000000000000000000000000000000000000000000000000000000600052601160045260246000fd5b6000612db582612238565b91507fffffffffffffffffffffffffffffffffffffffffffffffffffffffffffffffff8203612de757612de6612d7b565b5b600182019050919050565b600081905092915050565b50565b6000612e0d600083612df2565b9150612e1882612dfd565b600082019050919050565b6000612e2e82612e00565b9150819050919050565b7f5472616e7366657220746f206f776e6572206661696c65640000000000000000600082015250565b6000612e6e601883612191565b9150612e7982612e38565b602082019050919050565b60006020820190508181036000830152612e9d81612e61565b9050919050565b7f4e6f7420746865206f776e657200000000000000000000000000000000000000600082015250565b6000612eda600d83612191565b9150612ee582612ea4565b602082019050919050565b60006020820190508181036000830152612f0981612ecd565b9050919050565b60008190508160005260206000209050919050565b60006020601f8301049050919050565b600082821b905092915050565b600060088302612f727fffffffffffffffffffffffffffffffffffffffffffffffffffffffffffffffff82612f35565b612f7c8683612f35565b95508019841693508086168417925050509392505050565b6000819050919050565b6000612fb9612fb4612faf84612238565b612f94565b612238565b9050919050565b6000819050919050565b612fd383612f9e565b612fe7612fdf82612fc0565b848454612f42565b825550505050565b600090565b612ffc612fef565b613007818484612fca565b505050565b5b8181101561302b57613020600082612ff4565b60018101905061300d565b5050565b601f8211156130705761304181612f10565b61304a84612f25565b81016020851015613059578190505b61306d61306585612f25565b83018261300c565b50505b505050565b600082821c905092915050565b600061309360001984600802613075565b1980831691505092915050565b60006130ac8383613082565b9150826002028217905092915050565b6130c582612186565b67ffffffffffffffff8111156130de576130dd612522565b5b6130e882546128e6565b6130f382828561302f565b600060209050601f8311600181146131265760008415613114578287015190505b61311e85826130a0565b865550613186565b601f19841661313486612f10565b60005b8281101561315c57848901518255600182019150602085019450602081019050613137565b868310156131795784890151613175601f891682613082565b8355505b6001600288020188555050505b505050505050565b600081905092915050565b60006131a482612186565b6131ae818561318e565b93506131be8185602086016121a2565b80840191505092915050565b60006131d68285613199565b91506131e28284613199565b91508190509392505050565b7f4552433732313a207472616e736665722066726f6d20696e636f72726563742060008201527f6f776e6572000000000000000000000000000000000000000000000000000000602082015250565b600061324a602583612191565b9150613255826131ee565b604082019050919050565b600060208201905081810360008301526132798161323d565b9050919050565b7f4552433732313a207472616e7366657220746f20746865207a65726f2061646460008201527f7265737300000000000000000000000000000000000000000000000000000000602082015250565b60006132dc602483612191565b91506132e782613280565b604082019050919050565b6000602082019050818103600083015261330b816132cf565b9050919050565b7f4552433732313a20617070726f766520746f2063616c6c657200000000000000600082015250565b6000613348601983612191565b915061335382613312565b602082019050919050565b600060208201905081810360008301526133778161333b565b9050919050565b7f4552433732313a207472616e7366657220746f206e6f6e20455243373231526560008201527f63656976657220696d706c656d656e7465720000000000000000000000000000602082015250565b60006133da603283612191565b91506133e58261337e565b604082019050919050565b60006020820190508181036000830152613409816133cd565b9050919050565b7f4e487b7100000000000000000000000000000000000000000000000000000000600052601260045260246000fd5b600061344a82612238565b915061345583612238565b925082820390508181111561346d5761346c612d7b565b5b92915050565b600061347e82612238565b915061348983612238565b92508282019050808211156134a1576134a0612d7b565b5b92915050565b600081519050919050565b600082825260208201905092915050565b60006134ce826134a7565b6134d881856134b2565b93506134e88185602086016121a2565b6134f1816121cc565b840191505092915050565b600060808201905061351160008301876122cd565b61351e60208301866122cd565b61352b604083018561242e565b818103606083015261353d81846134c3565b905095945050505050565b600081519050613557816120f7565b92915050565b600060208284031215613573576135726120c1565b5b600061358184828501613548565b91505092915050565b7f4552433732313a206d696e7420746f20746865207a65726f2061646472657373600082015250565b60006135c0602083612191565b91506135cb8261358a565b602082019050919050565b600060208201905081810360008301526135ef816135b3565b9050919050565b7f4552433732313a20746f6b656e20616c7265616479206d696e74656400000000600082015250565b600061362c601c83612191565b9150613637826135f6565b602082019050919050565b6000602082019050818103600083015261365b8161361f565b905091905056fea2646970667358221220809f7e1f6ee12943fc995168204ed1679fb8bce328be5ca9f84dca0aef93f44564736f6c63430008110033",
  "linkReferences": {},
  "deployedLinkReferences": {}
}